{
  "_format": "hh3-artifact-1",
  "contractName": "Transactions",
  "sourceName": "contracts/Transactions.sol",
  "abi": [
    {
      "anonymous": false,
      "inputs": [
        {
          "indexed": false,
          "internalType": "address",
          "name": "from",
          "type": "address"
        },
        {
          "indexed": false,
          "internalType": "address[]",
          "name": "receivers",
          "type": "address[]"
        },
        {
          "indexed": false,
          "internalType": "uint256[]",
          "name": "amounts",
          "type": "uint256[]"
        },
        {
          "indexed": false,
          "internalType": "string",
          "name": "message",
          "type": "string"
        },
        {
          "indexed": false,
          "internalType": "uint256",
          "name": "timestamp",
          "type": "uint256"
        },
        {
          "indexed": false,
          "internalType": "string",
          "name": "keyword",
          "type": "string"
        },
        {
          "indexed": false,
          "internalType": "uint256",
          "name": "chainId",
          "type": "uint256"
        }
      ],
      "name": "BatchTransfer",
      "type": "event"
    },
    {
      "anonymous": false,
      "inputs": [
        {
          "indexed": false,
          "internalType": "address",
          "name": "from",
          "type": "address"
        },
        {
          "indexed": false,
          "internalType": "address",
          "name": "receiver",
          "type": "address"
        },
        {
          "indexed": false,
          "internalType": "uint256",
          "name": "amount",
          "type": "uint256"
        },
        {
          "indexed": false,
          "internalType": "string",
          "name": "message",
          "type": "string"
        },
        {
          "indexed": false,
          "internalType": "uint256",
          "name": "timestamp",
          "type": "uint256"
        },
        {
          "indexed": false,
          "internalType": "string",
          "name": "keyword",
          "type": "string"
        },
        {
          "indexed": false,
          "internalType": "uint256",
          "name": "chainId",
          "type": "uint256"
        }
      ],
      "name": "Transfer",
      "type": "event"
    },
    {
      "inputs": [
        {
          "internalType": "address payable",
          "name": "receiver",
          "type": "address"
        },
        {
          "internalType": "uint256",
          "name": "amount",
          "type": "uint256"
        },
        {
          "internalType": "string",
          "name": "message",
          "type": "string"
        },
        {
          "internalType": "string",
          "name": "keyword",
          "type": "string"
        }
      ],
      "name": "addToBlockchain",
      "outputs": [],
      "stateMutability": "payable",
      "type": "function"
    },
    {
      "inputs": [
        {
          "internalType": "address[]",
          "name": "receivers",
          "type": "address[]"
        },
        {
          "internalType": "uint256[]",
          "name": "amounts",
          "type": "uint256[]"
        },
        {
          "internalType": "string",
          "name": "message",
          "type": "string"
        },
        {
          "internalType": "string",
          "name": "keyword",
          "type": "string"
        }
      ],
      "name": "batchTransfer",
      "outputs": [],
      "stateMutability": "payable",
      "type": "function"
    },
    {
      "inputs": [],
      "name": "getAllTransactions",
      "outputs": [
        {
          "components": [
            {
              "internalType": "address",
              "name": "sender",
              "type": "address"
            },
            {
              "internalType": "address",
              "name": "receiver",
              "type": "address"
            },
            {
              "internalType": "uint256",
              "name": "amount",
              "type": "uint256"
            },
            {
              "internalType": "string",
              "name": "message",
              "type": "string"
            },
            {
              "internalType": "uint256",
              "name": "timestamp",
              "type": "uint256"
            },
            {
              "internalType": "string",
              "name": "keyword",
              "type": "string"
            },
            {
              "internalType": "uint256",
              "name": "chainId",
              "type": "uint256"
            }
          ],
          "internalType": "struct Transactions.TransferStruct[]",
          "name": "",
          "type": "tuple[]"
        }
      ],
      "stateMutability": "view",
      "type": "function"
    },
    {
      "inputs": [],
      "name": "getTransactionCount",
      "outputs": [
        {
          "internalType": "uint256",
          "name": "",
          "type": "uint256"
        }
      ],
      "stateMutability": "view",
      "type": "function"
    }
  ],
  "bytecode": "0x608060405234801561001057600080fd5b50610e6e806100206000396000f3fe60806040526004361061003f5760003560e01c806327506f53146100445780632e7700f01461006f57806394ea95f11461008d578063cc2d7ead146100a2575b600080fd5b34801561005057600080fd5b506100596100b5565b60405161006691906107e8565b60405180910390f35b34801561007b57600080fd5b50600054604051908152602001610066565b6100a061009b366004610a12565b61027a565b005b6100a06100b0366004610b1d565b61057e565b60606001805480602002602001604051908101604052809291908181526020016000905b828210156102715760008481526020908190206040805160e0810182526007860290920180546001600160a01b0390811684526001820154169383019390935260028301549082015260038201805491929160608401919061013a90610b62565b80601f016020809104026020016040519081016040528092919081815260200182805461016690610b62565b80156101b35780601f10610188576101008083540402835291602001916101b3565b820191906000526020600020905b81548152906001019060200180831161019657829003601f168201915b50505050508152602001600482015481526020016005820180546101d690610b62565b80601f016020809104026020016040519081016040528092919081815260200182805461020290610b62565b801561024f5780601f106102245761010080835404028352916020019161024f565b820191906000526020600020905b81548152906001019060200180831161023257829003601f168201915b50505050508152602001600682015481525050815260200190600101906100d9565b50505050905090565b82518451146102de5760405162461bcd60e51b815260206004820152602560248201527f52656365697665727320616e6420616d6f756e7473206c656e677468206d69736044820152640dac2e8c6d60db1b60648201526084015b60405180910390fd5b6000805b8451811015610324578481815181106102fd576102fd610b9c565b6020026020010151826103109190610bc8565b91508061031c81610be1565b9150506102e2565b508034146103745760405162461bcd60e51b815260206004820152601b60248201527f496e636f727265637420746f74616c20616d6f756e742073656e74000000000060448201526064016102d5565b60005b85518110156105335760016000808282546103929190610bc8565b9250508190555060016040518060e00160405280336001600160a01b031681526020018884815181106103c7576103c7610b9c565b60200260200101516001600160a01b031681526020018784815181106103ef576103ef610b9c565b602090810291909101810151825281810188905242604080840191909152606080840189905246608090940193909352845460018082018755600096875295839020855160079092020180546001600160a01b03199081166001600160a01b039384161782559386015196810180549094169690911695909517909155820151600284015581015190919060038201906104899082610c49565b506080820151600482015560a082015160058201906104a89082610c49565b5060c0820151816006015550508581815181106104c7576104c7610b9c565b60200260200101516001600160a01b03166108fc8683815181106104ed576104ed610b9c565b60200260200101519081150290604051600060405180830381858888f19350505050158015610520573d6000803e3d6000fd5b508061052b81610be1565b915050610377565b507fad78a93108a14a47141177a41c1a2be34cfe8f1957820561ce19a5762a6f72ba3386868642874660405161056f9796959493929190610d44565b60405180910390a15050505050565b8234146105c55760405162461bcd60e51b8152602060048201526015602482015274125b98dbdc9c9958dd08185b5bdd5b9d081cd95b9d605a1b60448201526064016102d5565b60016000808282546105d79190610bc8565b90915550506040805160e0810182523381526001600160a01b03868116602083019081529282018681526060830186815242608085015260a084018690524660c0850152600180548082018255600091909152845160079091027fb10e2d527612073b26eecdfd717e6a320cf44b4afac2b0732d9fcbe2b7fa0cf6810180549286166001600160a01b031993841617815596517fb10e2d527612073b26eecdfd717e6a320cf44b4afac2b0732d9fcbe2b7fa0cf7820180549190961692169190911790935590517fb10e2d527612073b26eecdfd717e6a320cf44b4afac2b0732d9fcbe2b7fa0cf8830155519192917fb10e2d527612073b26eecdfd717e6a320cf44b4afac2b0732d9fcbe2b7fa0cf9909101906106f59082610c49565b506080820151600482015560a082015160058201906107149082610c49565b5060c091909101516006909101556040516001600160a01b0385169084156108fc029085906000818181858888f19350505050158015610758573d6000803e3d6000fd5b507f8540f43ea1b9c35fbacd3d28c2f68aa72528ec24969a0f941618c8e6e2048ba5338585854286466040516107949796959493929190610ded565b60405180910390a150505050565b6000815180845260005b818110156107c8576020818501810151868301820152016107ac565b506000602082860101526020601f19601f83011685010191505092915050565b60006020808301818452808551808352604092508286019150828160051b87010184880160005b838110156108a657888303603f19018552815180516001600160a01b039081168552888201511688850152868101518785015260608082015160e0828701819052919061085e838801826107a2565b92505050608080830151818701525060a0808301518683038288015261088483826107a2565b60c094850151979094019690965250509487019492509086019060010161080f565b509098975050505050505050565b634e487b7160e01b600052604160045260246000fd5b604051601f8201601f1916810167ffffffffffffffff811182821017156108f3576108f36108b4565b604052919050565b600067ffffffffffffffff821115610915576109156108b4565b5060051b60200190565b6001600160a01b038116811461093457600080fd5b50565b600082601f83011261094857600080fd5b8135602061095d610958836108fb565b6108ca565b82815260059290921b8401810191818101908684111561097c57600080fd5b8286015b848110156109975780358352918301918301610980565b509695505050505050565b600082601f8301126109b357600080fd5b813567ffffffffffffffff8111156109cd576109cd6108b4565b6109e0601f8201601f19166020016108ca565b8181528460208386010111156109f557600080fd5b816020850160208301376000918101602001919091529392505050565b60008060008060808587031215610a2857600080fd5b843567ffffffffffffffff80821115610a4057600080fd5b818701915087601f830112610a5457600080fd5b81356020610a64610958836108fb565b82815260059290921b8401810191818101908b841115610a8357600080fd5b948201945b83861015610aaa578535610a9b8161091f565b82529482019490820190610a88565b98505088013592505080821115610ac057600080fd5b610acc88838901610937565b94506040870135915080821115610ae257600080fd5b610aee888389016109a2565b93506060870135915080821115610b0457600080fd5b50610b11878288016109a2565b91505092959194509250565b60008060008060808587031215610b3357600080fd5b8435610b3e8161091f565b935060208501359250604085013567ffffffffffffffff80821115610ae257600080fd5b600181811c90821680610b7657607f821691505b602082108103610b9657634e487b7160e01b600052602260045260246000fd5b50919050565b634e487b7160e01b600052603260045260246000fd5b634e487b7160e01b600052601160045260246000fd5b80820180821115610bdb57610bdb610bb2565b92915050565b600060018201610bf357610bf3610bb2565b5060010190565b601f821115610c4457600081815260208120601f850160051c81016020861015610c215750805b601f850160051c820191505b81811015610c4057828155600101610c2d565b5050505b505050565b815167ffffffffffffffff811115610c6357610c636108b4565b610c7781610c718454610b62565b84610bfa565b602080601f831160018114610cac5760008415610c945750858301515b600019600386901b1c1916600185901b178555610c40565b600085815260208120601f198616915b82811015610cdb57888601518255948401946001909101908401610cbc565b5085821015610cf95787850151600019600388901b60f8161c191681555b5050505050600190811b01905550565b600081518084526020808501945080840160005b83811015610d3957815187529582019590820190600101610d1d565b509495945050505050565b6001600160a01b03888116825260e0602080840182905289519184018290526000928a820192909190610100860190855b81811015610d93578551851683529483019491830191600101610d75565b50508581036040870152610da7818c610d09565b93505050508281036060840152610dbe81886107a2565b905085608084015282810360a0840152610dd881866107a2565b9150508260c083015298975050505050505050565b6001600160a01b038881168252871660208201526040810186905260e060608201819052600090610e20908301876107a2565b85608084015282810360a0840152610dd881866107a256fea26469706673582212209606b7d6864e36854b2bd6f55cbbbd2dd05dc4448ab4c63f5630d816089b1ba164736f6c63430008130033",
  "linkReferences": {},
  "deployedLinkReferences": {},
  "immutableReferences": {},
  "inputSourceName": "project/contracts/Transactions.sol",
  "buildInfoId": "solc-0_8_19-ac93aa4d9a84673950c0a259361990275ec35a14"
}